:020000040800F2
:1000000000000220A56C0008D1060008D3060008F5
:10001000D5060008D7060008D90600080000000031
:10002000000000000000000000000000D16900088E
:10003000DB06000800000000716A0008D56A0008AD
:10004000F56C0008F56C0008F56C0008F56C00080C
:10005000F56C0008F56C0008F56C0008F56C0008FC
:10006000F56C0008F56C0008F56C0008F56C0008EC
:10007000F56C0008F56C0008F56C0008F56C0008DC
:10008000F56C0008F56C0008F56C0008F56C0008CC
:10009000F56C0008F56C0008F56C0008F56C0008BC
:1000A000F56C0008DD060008F56C0008F56C00082A
:1000B000F56C0008F56C0008F56C0008F56C00089C
:1000C000F56C0008F56C0008F56C0008F56C00088C
:1000D000F56C0008F56C0008F56C0008F56C00087C
:1000E000F56C0008F56C000800000000F56C0008D5
:1000F000F56C0008F56C0008F56C0008F56C00085C
:10010000F56C0008F56C0008F56C0008F56C00084B
:10011000F56C0008F56C0008F56C0008F56C00083B
:10012000F56C0008F56C0008F56C0008F56C00082B
:10013000F56C0008F56C0008F56C0008F56C00081B
:1001400000000000000000000000000000000000AF
:10015000F56C0008F56C0008F56C0008F56C0008FB
:10016000F56C0008F56C0008F56C0008F56C0008EB
:10017000F56C0008F56C0008F56C00080000000044
:10018000F56C0008F56C0008F56C0008F56C0008CB
:10019000F56C0008F56C0008F56C0008F56C0008BB
:1001A000F56C0008F56C0008F56C0008F56C0008AB
:1001B000F56C0008F56C0008F56C0008F56C00089B
:1001C000F56C0008F56C0008F56C0008F56C00088B
:1001D000F56C0008F56C0008F56C0008F56C00087B
:1001E000F56C0008F56C0008F56C0008F56C00086B
:1001F000F56C0008F56C0008F56C0008F56C00085B
:10020000F56C0008F56C0008F56C0008F56C00084A
:10021000F56C0008F56C0008F56C0008F56C00083A
:10022000F56C0008F56C0008F56C00080000000093
:10023000F56C0008F56C000800000000F56C000883
:10024000F56C0008F56C0008F56C0008F56C00080A
:10025000F56C0008F56C0008F56C0008F56C0008FA
:10026000F56C0008F56C0008F56C0008F56C0008EA
:10027000F56C0008F56C0008F56C00080000000043
:10028000F56C0008F56C0008F56C00080000000033
:0802900000000000F56C0008FD
:1002A00053B94AB9002908BF00281CBF4FF0FF31DD
:1002B0004FF0FF3000F00CB8ADF1080C6DE904CE42
:1002C00006F054FDDDF804E0DDE9022304B07047D8
:1002D000704700BF10B5054C227832B9044B13B1FA
:1002E0000448AFF300800123237010BDE00000201C
:1002F000000000001870000808B5034B1BB103494B
:100300000348AFF3008008BD00000000E4000020B7
:10031000187000082DE9F0418CB00024079408946F
:1003200009940A940B944E4BD3F8E02042F0040257
:10033000C3F8E020D3F8E02002F004020092009A13
:10034000D3F8E02042F08002C3F8E020D3F8E020A8
:1003500002F080020192019AD3F8E02042F00102FB
:10036000C3F8E020D3F8E02002F001020292029AE2
:10037000D3F8E02042F00202C3F8E020D3F8E020F6
:1003800002F002020392039AD3F8E02042F008023E
:10039000C3F8E020D3F8E02002F008020492049AA7
:1003A000D3F8E02042F04002C3F8E020D3F8E02088
:1003B00002F040020592059AD3F8E02042F01002C4
:1003C000C3F8E020D3F8E03003F010030693069B57
:1003D000DFF8A480224644F20101404604F014FDF7
:1003E000204F22464FF48061384604F00DFD1E4E2A
:1003F00022460221304604F007FD4FF400530793D4
:100400000894099407A9194804F00CFC44F201036C
:1004100007930125089509940A9407A9404604F01A
:1004200001FC4FF480630793089509940A9407A987
:10043000384604F0F7FB802307930D4B089309948B
:1004400007A90C4804F0EEFB0223079308950994D2
:100450000A9407A9304604F0E5FB0CB0BDE8F08132
:1004600000440258000C02580010025800080258BC
:1004700000001111001802580004025830B583B072
:100480001648174B036000248DF8004080238DF838
:100490000130E1238DF802308DF803408DF80440DF
:1004A0008DF80540C0F804D0012303720D4BC360E2
:1004B0000D4B036140F2F453436100F04FFD0B4DCF
:1004C00030222146284606F049FC212345F8043C09
:1004D0004FF440332B6103B030BD00BF984E002075
:1004E0000080024080000020200000200C4F0020EF
:1004F00038B5104C104B23604FF4E1336360002596
:10050000A560E56025610C236361A561E561256255
:100510006562A562204602F003FB2946204602F0F0
:100520008AFB2946204602F0ABFB204602F064FB22
:1005300038BD00BF044A00200048004008B50A4802
:100540000A4B0360092343600222C2600023036157
:1005500082610122C261036243628262C2620363FA
:1005600002F0B3FB08BD00BF904A00200000084025
:1005700008B5002000F06CFA4FF47A7006F088F8A5
:10058000F7E7000010B5CCB04C22002139A806F0E6
:10059000E5FB2022002131A806F0E0FBBC2200216F
:1005A00002A806F0DBFB022004F03EFC00230193CE
:1005B000274BDA6A22F00102DA62DB6A03F00103F8
:1005C0000193244A936923F4404343F480439361A5
:1005D000936903F440430193019B1E4B9B6913F401
:1005E000005FFAD0032339934FF4A0233A930122FA
:1005F0003C9220233D93022342934393449218223A
:10060000459246930422479248930C234993002431
:100610004A944B9439A802F08DFD3F2331933294D4
:10062000339434943594369437943894214631A8D1
:1006300003F054F9084B02931F944FF48013239353
:1006400002A803F0F9FB04F017FC4CB010BD00BF8A
:1006500000040058004802580200040000B58BB0A6
:1006600004F012FCFFF78EFFFFF754FEFFF706FFC2
:10067000FFF73EFFFFF762FF002000F0ABF905F047
:1006800049FF2022002102A806F068FB074B0193D6
:10069000802306931823079301AA0021044805F03C
:1006A00081FF044B186005F057FFFEE73870000823
:1006B00071050008004A002008B50268034B9A4201
:1006C00000D008BD04F00EFCFBE700BF00000140B5
:1006D0007047FEE7FEE7FEE7FEE7704708B5024811
:1006E00000F0F0FC08BD00BF3C4F002000B583B017
:1006F0000A4BD3F8F42042F00202C3F8F420D3F8F6
:10070000F43003F002030193019B00220F216FF0EC
:10071000010000F0BDF903B05DF804FB004402588D
:1007200070B58CB000230793089309930A930B9339
:100730000268434B9A4201D00CB070BD414BD3F8D4
:10074000D82042F40042C3F8D820D3F8D82002F4CD
:1007500000420092009AD3F8D82042F48032C3F8C5
:10076000D820D3F8D82002F480320192019AD3F82D
:10077000D82042F40032C3F8D820D3F8D82002F4AD
:1007800000320292029AD3F8E02042F00402C3F849
:10079000E020D3F8E02002F004020392039AD3F899
:1007A000E02042F00102C3F8E020D3F8E02002F09C
:1007B00001020492049AD3F8E02042F00202C3F846
:1007C000E020D3F8E02002F002020592059AD3F867
:1007D000E02042F04002C3F8E020D3F8E03003F01C
:1007E00040030693069B32230793022608960B25A7
:1007F0000B9507A9144804F015FA86230793089669
:10080000002409940A940B9507A9104804F00AFAE9
:100810004FF400530793089609940A940B9507A97F
:100820000B4804F0FFF94FF42053079308960994FE
:100830000A940B9507A9074804F0F4F97CE700BF78
:10084000008002400044025800080258000002588C
:10085000000402580018025800B589B00023039321
:1008600004930593069307930268154B9A4202D0AE
:1008700009B05DF804FB134BD3F8E82042F4802262
:10088000C3F8E820D3F8E82002F480220192019A0C
:10089000D3F8E02042F00802C3F8E020D3F8E030BB
:1008A00003F008030293029B4FF440730393022367
:1008B00004930723079303A9034804F0B3F9D7E788
:1008C0000048004000440258000C025830B589B07E
:1008D00000230393049305930693079302681A4B2E
:1008E0009A4201D009B030BD184CD4F8E03043F042
:1008F0000103C4F8E030D4F8E03003F001030193C1
:10090000019B4FF4C8530393022304930A230793D4
:100910000F4D03A9284604F085F94FF400730393A3
:1009200000230493059303A9284604F07BF9D4F827
:10093000D83043F00063C4F8D830D4F8D83003F08E
:1009400000630293029BCDE7000008400044025878
:100950000000025800B58BB001460022192000F0BB
:1009600097F8192000F0C6F8164BD3F8F02042F0A3
:100970000102C3F8F020D3F8F03003F00103009334
:10098000009B01A902A803F021F903F00DF90E4B19
:10099000A3FB00239B0C013B0C480D4A026040F274
:1009A000E732C260436000230361836000F0D8FC3B
:1009B00018B101200BB05DF804FB044800F068FB9F
:1009C000F8E700BF0044025883DE1B433C4F002081
:1009D00000000140F0B589B0044620BB194BD3F8A4
:1009E000E02042F00202C3F8E020D3F8E03003F048
:1009F00002030193019B144B33F814600396012307
:100A000004930027059703230693104D03A955F877
:100A1000240004F007F93A46314655F8240004F062
:100A2000F3F909B0F0BD074BD3F8E02042F0020221
:100A3000C3F8E020D3F8E03003F002030293029BF6
:100A4000D9E700BF004402584470000800000020AD
:100A500008B5044B33F81010034B53F8200004F092
:100A6000D9F908BD44700008000000200649CB6891
:100A700023F4E0631B041B0C000200F4E06003435A
:100A8000024A1A43CA60704700ED00E00000FA0510
:100A900030B4154BDB68C3F30223C3F10704042C05
:100AA00028BF04241D1D062D14D9033B4FF0FF352C
:100AB00005FA04F421EA0401994005FA03F322EA55
:100AC00003031943002807DB0901C9B2074B195476
:100AD00030BC70470023E9E700F00F000901C9B2FC
:100AE000034B1954F4E700BF00ED00E000E400E020
:100AF00014ED00E0002807DB00F01F02400901238D
:100B00009340024A42F82030704700BF00E100E005
:100B100030B48B680A6813430A7943EAC2630A7BDC
:100B200043EAC2534A7B43EA82538A7B43EA4253F5
:100B3000CA7B43EA02530A7C002A40F0B0804FF49B
:100B4000002213434A7C002A40F0AB804FF400326D
:100B500013438A7C43EA02434A6913438A69134375
:100B60000A7F43EA02334A7F43EAC2238A7F002A8C
:100B700040F099804FF480621343CA7F43EA4223D6
:100B800091F82020002A40F090804FF480721343A7
:100B90004A6A134391F8282043EA0213CA6A1343AE
:100BA0000468226822F07F4222F47B0222F4FE4293
:100BB00022F07C0213432360CA6B91F838301B0685
:100BC00043EA426391F8302043EA824391F83120AE
:100BD00043EA424391F83220002A68D14FF4803230
:100BE00013434A6B13430468626822F07C5222F478
:100BF000EF2222F4FF6222F007021343636091F8B0
:100C000040204B6C43EA02220468E5682B4B2B40E2
:100C10001343E36091F854200B6D43EA420391F8CB
:100C20004C20002A45D1802213438A6C43EA0243B8
:100C30000468226F22F0F2021204120C134323679D
:100C400091F8563091F8552043EA42020468D4F8EE
:100C5000903023F003031343C4F890300268D2F8B5
:100C6000003D23F072038C6D2343C2F8003DCB6D31
:100C700091F86020FAB94022134391F8612043EAC9
:100C8000021391F8622043EAC2030168D1F8302DC3
:100C900022F07B021343C1F8303D30BC7047002284
:100CA0004FE7002254E7002266E700226FE70022A8
:100CB00096E70022B8E70022DEE700BFF0FEFFFF64
:100CC00070B4026802F5805214681E4B23400C6811
:100CD000234313600A798B6843EA02330A7B43EAB1
:100CE000C232056841F204042E59174B33401343B6
:100CF0002B514C7B0B6A43EA0444026802F588528C
:100D00001568124B2B40234313600B690A7D43EA9D
:100D100002134A7F43EA0232056841F204142E5955
:100D20000B4B334013432B510A7F8B6943EAC2724A
:100D3000006841F208114458064B234013434350C6
:100D400070BC7047FD87FFFFFE2FFFFF00C0FEFF56
:100D5000EFEFC0FFFFFFC07F70B5A2B006460125D0
:100D60008DF83350002412948DF841408DF84340A3
:100D70008DF828508DF856508DF832508DF84C4033
:100D80008DF884504FF400530F938DF85C40189405
:100D90008DF885408DF886404FF4C36316938DF827
:100DA00030400B948DF835508DF836408DF840402A
:100DB0001D941B9414948DF864408DF87A408DF83E
:100DC0004250202320938DF844508DF855404FF029
:100DD000405309934FF480430E938DF83140022322
:100DE0001F938DF878408DF879408DF854408DF838
:100DF00034501A948DF8705009A9FFF789FE8DF8C8
:100E00000450029500948DF81C408DF80D408DF82B
:100E10000C404FF4001306938DF8144004938DF8A2
:100E20001D404FF40673089369463046FFF748FFAC
:100E300022B070BD30B400220EE0C46802EB420361
:100E4000DD0004EBC3030021615159609960D96052
:100E5000911D40F821300132032AEED9002383622C
:100E6000026841F22C130321D150C168026841F29B
:100E70001413D150C268036803F589531A6030BC5B
:100E8000704730B4002112E0046901EB4103DD003A
:100E900004EBC303002262515A609A60DA601A615F
:100EA0005A6101F10A0200EB820253600131032909
:100EB000EAD90023C36303644364C36483640268A0
:100EC00041F230130321D1500169026841F21C1331
:100ED000D150036903F5D863016841F228128B50A1
:100EE00030BC704738B505460368D3F8004224F497
:100EF000706402F031FE114B0344114A934205D253
:100F000044F400742B68C3F8004238BD0D4B034411
:100F10000D4A934202D844F44074F3E70B4B034468
:100F20000B4A9342EED30B4B03440B4A934202D835
:100F300044F48074E6E744F48064E3E700D3CEFE33
:100F4000C0E1E40040F1E9FD3F787D0100796CFCEF
:100F5000005A6202001F0AFA7FF0FA02002800F02D
:100F60008C8030B583B00446436D8BB32323636517
:100F7000434BD3F8F42042F00202C3F8F420D3F834
:100F8000F43003F002030193019B237A1BBB002082
:100F900003F0D4FF236803F580531A6842F001027E
:100FA0001A6003F0ABFF0546236803F580531B6806
:100FB00013F0010F14D003F0A1FF401BB0F5FA7F2E
:100FC000F2D90423E365E0236365012003B030BD5B
:100FD000FFF7A6FBCAE74FF4000003F0AFFFD9E725
:100FE0002046FFF77FFF02F0B7FD264BA3FB00234F
:100FF0009B0C2268013BC2F8DC302046FFF7ACFEB8
:10100000226802F58852136823F4E01343F40023A6
:101010001360626912F0030F04D00120E065E02341
:101020006365D3E7206841F208114558164B2B4001
:1010300043EA420343502046FFF7FCFE2046FFF7F9
:1010400020FF626851791379226843EA0123C2F8CC
:1010500000336268D17893781B0443EA01635178C6
:1010600043EA0123117822680B43C2F804330020BD
:10107000E06510236365A365A8E70120704700BF02
:101080000044025883DE1B430180FFFF70470000CD
:101090000268D36843F00103D36002689168064B8D
:1010A0000B40062B18BFB3F5803F03D0136843F005
:1010B000010313600020704707000100704770476C
:1010C0007047704710B5044603681A6912F0020FA2
:1010D00011D0DA6812F0020F0DD06FF002021A611F
:1010E0000123037703689B6913F0030F79D0FFF79F
:1010F000E6FF0023237723681A6912F0040F12D049
:10110000DA6812F0040F0ED06FF004021A610223A5
:10111000237723689B6913F4407F68D02046FFF74C
:10112000CEFF0023237723681A6912F0080F12D02C
:10113000DA6812F0080F0ED06FF008021A6104236B
:1011400023772368DB6913F0030F57D02046FFF79E
:10115000B6FF0023237723681A6912F0100F12D00C
:10116000DA6812F0100F0ED06FF010021A61082327
:1011700023772368DB6913F4407F46D02046FFF7CE
:101180009EFF0023237723681A6912F0010F03D012
:10119000DA6812F0010F3FD123681A6912F0800F4C
:1011A00003D0DA6812F0800F3DD123681A6912F477
:1011B000807F03D0DA6812F0800F3BD123681A6970
:1011C00012F0400F03D0DA6812F0400F39D12368D3
:1011D0001A6912F0200F03D0DA6812F0200F37D10D
:1011E00010BDFFF76BFF2046FFF76AFF81E720463F
:1011F000FFF764FF2046FFF763FF92E72046FFF703
:101200005DFF2046FFF75CFFA3E72046FFF756FF90
:101210002046FFF755FFB4E76FF001021A61204640
:10122000FFF74AFAB8E76FF080021A61204600F033
:10123000B2F8BAE76FF480721A61204600F0ACF899
:10124000BCE76FF040021A612046FFF73AFFBEE7A5
:101250006FF020021A61204600F09CF8C0E7000001
:1012600070B40368374CA04214BF00240124B0F1CD
:10127000804F14BF224644F00102AAB9324DA84261
:1012800014BF00250125314EB0420DD065B905F1DE
:10129000804505F58235A84214BF0025012506F5D5
:1012A0000066B04200D01DB123F070034D682B439F
:1012B00012BB254A904214BF00220122234DA842AE
:1012C0001AD0CAB902F1804202F58232904214BFAC
:1012D0000022012205F50065A8420DD062B91C4A22
:1012E000904214BF0022012205F59A35A84203D08E
:1012F00012B9184A904203D123F44073CA681343C9
:1013000023F080034A69134303608A68C2620A6853
:101310008262114B984214BF234644F001035BB92B
:101320000B4B984214BF002301230C4A904203D078
:1013300013B9084B984201D10B6903630123436140
:1013400070BC7047000001400008004000040040ED
:1013500000440140004801400004014000400140B9
:10136000B0B110B5044690F83D3063B1022384F863
:101370003D30214651F8040BFFF772FF012384F83A
:101380003D30002010BD80F83C30FFF77FFEEDE7D8
:101390000120704770477047704700002DE9F04307
:1013A00087B00446016883680269134342691343A6
:1013B000C2691343426E13430868884A02401A43C5
:1013C0000A602268536823F44053E1680B4353607A
:1013D000A1692268824B9A4201D0236A194390681E
:1013E000804B03400B4393602268D36A23F00F03C2
:1013F000616A0B43D36223687B4A934221D07B4AC4
:10140000934200F08C807A4A934200F0A280794A9D
:10141000934200F0B580784A934200F0C880774A42
:10142000934200F0F380764A934200F01881754AA7
:10143000934200F02B816A4A934200F03E8180255E
:1014400033E0714A526D02F03802282A65D8DFE88D
:1014500012F0290064006400640064006400640009
:1014600064004C0164006400640064006400640073
:1014700064002B0064006400640064006400640085
:1014800064005E0064006400640064006400640042
:101490006400600064006400640064006400640030
:1014A00064006200012500E008254D4A934200F0E7
:1014B0002E81E369B3F5004F00F0AE85202D00F2D8
:1014C000FA87202D01F21382DFE815F02A086E0852
:1014D000110A110AAC08110A110A110AEC08110AC2
:1014E000110A110A110A110A110A110A2C09110A0A
:1014F000110A110A110A110A110A110A110A110A14
:10150000110A110A110A110A110A110AB00910254B
:10151000CBE72025C9E74025C7E78025C5E73A4A3C
:10152000526D02F00702052A11D8DFE812F006001A
:10153000E00008000A000C000E000025B5E70825B1
:10154000B3E71025B1E72025AFE74025ADE78025BB
:10155000ABE72D4A526D02F00702052A0ED8DFE8EC
:1015600002F003C80507090B00259EE708259CE744
:1015700010259AE7202598E7402596E7802594E7EF
:10158000214A526D02F00702052A0ED8DFE802F068
:1015900003B30507090B002587E7082585E7102514
:1015A00083E7202581E740257FE780257DE7164AF0
:1015B000526D02F00702052A0ED8DFE802F0039E02
:1015C0000507090B002570E708256EE710256CE775
:1015D00020256AE7402568E7802566E7F369FFCFA5
:1015E000000C0058FFF4FF110010014000440040BF
:1015F00000480040004C00400050004000140140F2
:1016000000780040007C0040004402587A4A526D45
:1016100002F03802282A20D8DFE802F0151F1F1F29
:101620001F1F1F1F711F1F1F1F1F1F1F171F1F1F80
:101630001F1F1F1F191F1F1F1F1F1F1F1B1F1F1FC4
:101640001F1F1F1F1D0001252FE708252DE710254F
:101650002BE7202529E7402527E7802525E7664A4F
:10166000526D02F00702052A0ED8DFE802F0034AA5
:101670000507090B002518E7082516E7102514E7CC
:10168000202512E7402510E780250EE75A4A526DC3
:1016900002F00702052A0ED8DFE802F0033505073D
:1016A000090B002501E70825FFE61025FDE62025AA
:1016B000FBE64025F9E68025F7E602F50E32926D4D
:1016C00002F00702052A0ED8DFE802F0031F050723
:1016D000090B0225E9E60825E7E61025E5E62025C1
:1016E000E3E64025E1E68025DFE60425DDE6042586
:1016F000DBE60425D9E60425D7E60425D5E604254E
:10170000D3E60425D1E60425CFE60425CDE6202D39
:1017100027D8022DC1F0EE80AB1E1E2B01F2EC800B
:10172000DFE813F04B00EA08BB00EA08EA08EA0821
:10173000F400EA08EA08EA08EA08EA08EA08EA0817
:101740002D01EA08EA08EA08EA08EA08EA08EA08CD
:10175000EA08EA08EA08EA08EA08EA08EA08EA08F9
:10176000A301402D26D1636A002B00F0B781012B25
:1017700000F0BA81022B00F0B981032B00F0B88190
:10178000042B00F0B781052B00F0B681062B00F08A
:10179000B581072B00F0B481082B00F0B381092B31
:1017A00000F0B2810A2B00F0B1810B2B00F0938185
:1017B000012294E1012501F0ACB803F00FF8636A4F
:1017C000E3B1012B55D0022B55D0032B55D0042B60
:1017D00055D0052B55D0062B55D0072B55D0082BAF
:1017E00055D0092B55D00A2B55D00B2B01D00123F6
:1017F00005E04FF4807302E0004402580123B0FB7F
:10180000F3F3002B01F07A80666806EB46029A42F9
:1018100001F27680B3EB063F01F27480202D00F2D6
:101820007781022DC0F0EC83023D1E2D00F2EB8388
:10183000DFE815F0A401E903FE01E903E903E90388
:101840005202E903E903E903E903E903E903E903D0
:10185000A602E903E903E903E903E903E903E9036C
:10186000E903E903E903E903E903E903E903E90318
:1018700058030223C3E70423C1E70623BFE7082375
:10188000BDE70A23BBE70C23B9E71023B7E7202302
:10189000B5E74023B3E78023B1E703A802F0B0FF28
:1018A000049B626AD2B1012A1CD0022A1CD0032AEE
:1018B0001CD0042A1CD0052A1CD0062A1CD0072ABA
:1018C0001CD0082A1CD0092A1CD00A2A1CD00B2A9A
:1018D00001D0012203E04FF4807200E00122B3FB4B
:1018E000F2F38EE70222FAE70422F8E70622F6E78F
:1018F0000822F4E70A22F2E70C22F0E71022EEE7D2
:101900002022ECE74022EAE78022E8E7684603F07D
:1019100075F8019B626AD2B1012A1CD0022A1CD040
:10192000032A1CD0042A1CD0052A1CD0062A1CD04D
:10193000072A1CD0082A1CD0092A1CD00A2A1CD02D
:101940000B2A01D0012203E04FF4807200E0012253
:10195000B3FBF2F355E70222FAE70422F8E7062286
:10196000F6E70822F4E70A22F2E70C22F0E7102259
:10197000EEE72022ECE74022EAE78022E8E7A84BE6
:101980001B6813F0200F3AD0A54B1A68C2F3C102AE
:10199000A44BD340626AD2B1012A1CD0022A1CD0C7
:1019A000032A1CD0042A1CD0052A1CD0062A1CD0CD
:1019B000072A1CD0082A1CD0092A1CD00A2A1CD0AD
:1019C0000B2A01D0012203E04FF4807200E00122D3
:1019D000B3FBF2F315E70222FAE70422F8E7062246
:1019E000F6E70822F4E70A22F2E70C22F0E71022D9
:1019F000EEE72022ECE74022EAE78022E8E7636A8C
:101A0000D3B1012B1DD0022B1DD0032B1DD0042BD5
:101A10001DD0052B1DD0062B1DD0072B1DD0082B4C
:101A20001DD0092B1DD00A2B1DD00B2B01D001225C
:101A300003E04FF4807200E001227A4BB3FBF2F333
:101A4000DFE60222F9E70422F7E70622F5E708229B
:101A5000F3E70A22F1E70C22EFE71022EDE720225C
:101A6000EBE74022E9E78022E7E7636AD3B1012B85
:101A70001DD0022B1DD0032B1DD0042B1DD0052BF8
:101A80001DD0062B1DD0072B1DD0082B1DD0092BD8
:101A90001DD00A2B1DD00B2B01D0012203E04FF4E7
:101AA000807200E00122604BB3FBF2F3A9E6022250
:101AB000F9E70422F7E70622F5E70822F3E70A220E
:101AC000F1E70C22EFE71022EDE72022EBE74022BE
:101AD000E9E78022E7E74FF4807200E001224FF44B
:101AE0000043B3FBF2F38CE60222F8E70422F6E7A8
:101AF0000622F4E70822F2E70A22F0E70C22EEE7DA
:101B00001022ECE72022EAE74022E8E78022E6E71D
:101B1000402D27D1636A002B00F03C82012B00F09E
:101B20005182022B00F05182032B00F05182042BD2
:101B300000F05182052B00F05182062B00F05182FB
:101B4000072B00F05182082B00F05182092B00F086
:101B500051820A2B00F051820B2B00F017820122D8
:101B6000002319E201250020A0F540722F4B9A4274
:101B700000F2CA862368D86000F0CBBE02F02EFEC9
:101B8000636AE3B1012B2DD0022B2ED0032B2FD073
:101B9000042B30D0052B31D0062B32D0072B33D07D
:101BA000082B34D0092B35D00A2B36D00B2B02D082
:101BB0000122002305E04FF48072002301E001229E
:101BC00000230021FEF76CFB0F0247EA10670602B4
:101BD0006268500800252B46301847F10001FEF7D7
:101BE0005FFBC1E702220023EBE704220023E8E7C2
:101BF00006220023E5E708220023E2E70A22002369
:101C0000DFE70C220023DCE710220023D9E72022A3
:101C10000023D6E740220023D3E780220023D0E729
:101C2000004402580090D00300093D00FFFC0F0063
:101C300003A802F0E5FD0498636AE3B1012B2DD0FF
:101C4000022B2ED0032B2FD0042B30D0052B31D0DC
:101C5000062B32D0072B33D0082B34D0092B35D0AC
:101C60000A2B36D00B2B02D00122002305E04FF4C3
:101C70008072002301E0012200230021FEF710FB07
:101C80000F0247EA106706026268500800252B46DB
:101C9000301847F10001FEF703FB65E7022200233D
:101CA000EBE704220023E8E706220023E5E7082209
:101CB0000023E2E70A220023DFE70C220023DCE70F
:101CC00010220023D9E720220023D6E74022002358
:101CD000D3E780220023D0E7684602F08FFE019808
:101CE000636AE3B1012B2DD0022B2ED0032B2FD012
:101CF000042B30D0052B31D0062B32D0072B33D01C
:101D0000082B34D0092B35D00A2B36D00B2B02D020
:101D10000122002305E04FF48072002301E001223C
:101D200000230021FEF7BCFA0F0247EA1067060203
:101D30006268500800252B46301847F10001FEF775
:101D4000AFFA11E702220023EBE704220023E8E7C1
:101D500006220023E5E708220023E2E70A22002307
:101D6000DFE70C220023DCE710220023D9E7202242
:101D70000023D6E740220023D3E780220023D0E7C8
:101D8000A24B1B6813F0200F58D0A04B1B68C3F365
:101D9000C1039F48D840636AE3B1012B30D0022BC6
:101DA00031D0032B32D0042B33D0052B34D0062B6B
:101DB00035D0072B36D0082B37D0092B38D00A2B3B
:101DC00039D00B2B02D00122002305E04FF48072A2
:101DD000002301E0012200230021FEF761FA4FEA0F
:101DE000012949EA10694FEA0028700800253246A7
:101DF0002B4618EB000049F10001FEF751FAB3E65B
:101E000002220023E8E704220023E5E7062200235C
:101E1000E2E708220023DFE70A220023DCE70C22A6
:101E20000023D9E710220023D6E720220023D3E79E
:101E300040220023D0E780220023CDE7636AE3B18C
:101E4000012B31D0022B32D0032B33D0042B34D0D2
:101E5000052B35D0062B36D0072B37D0082B38D0A2
:101E6000092B39D00A2B3AD00B2B02D001220023A8
:101E700005E04FF48072002301E001220023644852
:101E80000021FEF70DFA4FEA012949EA10694FEAED
:101E900000287008002532462B4618EB000049F157
:101EA0000001FEF7FDF95FE602220023E7E70422C6
:101EB0000023E4E706220023E1E708220023DEE70F
:101EC0000A220023DBE70C220023D8E7102200239C
:101ED000D5E720220023D2E740220023CFE780224B
:101EE0000023CCE7636AE3B1012B31D0022B32D05F
:101EF000032B33D0042B34D0052B35D0062B36D012
:101F0000072B37D0082B38D0092B39D00A2B3AD0E1
:101F10000B2B02D00122002305E04FF48072002336
:101F200001E0012200233B480021FEF7B9F94FEA06
:101F3000012949EA10694FEA002870080025324655
:101F40002B4618EB000049F10001FEF7A9F90BE65A
:101F500002220023E7E704220023E4E7062200230D
:101F6000E1E708220023DEE70A220023DBE70C2258
:101F70000023D8E710220023D5E720220023D2E750
:101F800040220023CFE780220023CCE74FF4807269
:101F9000002301E0012200234FF400400021FEF75E
:101FA0007FF94FEA012949EA10694FEA00287008D1
:101FB000002532462B4618EB000049F10001FEF7E0
:101FC0006FF9D1E502220023E6E704220023E3E7CC
:101FD00006220023E0E708220023DDE70A2200238F
:101FE000DAE70C220023D7E710220023D4E72022CF
:101FF0000023D1E740220023CEE780220023CBE755
:1020000001250020B0E501250020ADE5004402587F
:102010000090D00300093D00202D25D8202D00F28E
:102020004782DFE815F05D009B0045024502DA00BB
:102030004502450245021B01450245024502450293
:102040004502450245025C01450245024502450242
:102050004502450245024502450245024502450248
:10206000450245024502E201402D26D1636A002B5C
:1020700000F0FC81012B00F00782022B00F00682A9
:10208000032B00F00582042B00F00482052B00F0E6
:102090000382062B00F00282072B00F00182082B3E
:1020A00000F00082092B00F0FF810A2B00F0FE8176
:1020B0000B2B00F0D8810122D9E101250023A3F1E7
:1020C00010014FF6EF72914200F220849AB222F092
:1020D0000F02C3F3420313432268D36000F019BC1C
:1020E00001F050FD636AD3B1012B23D0022B23D022
:1020F000032B23D0042B23D0052B23D0062B23D056
:10210000072B23D0082B23D0092B23D00A2B23D035
:102110000B2B01D0012303E04FF4807300E0012377
:10212000B0FBF3F261684B0803EB4203B3FBF1F33E
:102130009BB2C4E70223F3E70423F1E70623EFE7AA
:102140000823EDE70A23EBE70C23E9E71023E7E791
:102150002023E5E74023E3E78023E1E701F024FDC6
:10216000636AD3B1012B24D0022B24D0032B24D0BB
:10217000042B24D0052B24D0062B24D0072B24D0CD
:10218000082B24D0092B24D00A2B24D00B2B01D0D0
:10219000012303E04FF4807300E00123B0FBF3F26E
:1021A00061684B0803EB4203B3FBF1F39BB20025DC
:1021B00085E70223F2E70423F0E70623EEE708238E
:1021C000ECE70A23EAE70C23E8E71023E6E72023FD
:1021D000E4E74023E2E78023E0E703A802F010FBF6
:1021E000049B626AD2B1012A24D0022A24D0032A95
:1021F00024D0042A24D0052A24D0062A24D0072A51
:1022000024D0082A24D0092A24D00A2A24D00B2A30
:1022100001D0012203E04FF4807200E00122B3FB01
:10222000F2F261684B0803EB4203B3FBF1F39BB29C
:10223000002544E70222F2E70422F0E70622EEE757
:102240000822ECE70A22EAE70C22E8E71022E6E798
:102250002022E4E74022E2E78022E0E7684602F03D
:10226000CDFB019B626AD2B1012A24D0022A24D07C
:10227000032A24D0042A24D0052A24D0062A24D0D4
:10228000072A24D0082A24D0092A24D00A2A24D0B4
:102290000B2A01D0012203E04FF4807200E00122FA
:1022A000B3FBF2F261684B0803EB4203B3FBF1F3BB
:1022B0009BB2002503E70222F2E70422F0E70622A0
:1022C000EEE70822ECE70A22EAE70C22E8E7102210
:1022D000E6E72022E4E74022E2E78022E0E7AF4B96
:1022E0001B6813F0200F42D0AC4B1A68C2F3C10236
:1022F000AB4BD340626AD2B1012A24D0022A24D047
:10230000032A24D0042A24D0052A24D0062A24D043
:10231000072A24D0082A24D0092A24D00A2A24D023
:102320000B2A01D0012203E04FF4807200E0012269
:10233000B3FBF2F261684B0803EB4203B3FBF1F32A
:102340009BB20025BBE60222F2E70422F0E7062258
:10235000EEE70822ECE70A22EAE70C22E8E710227F
:10236000E6E72022E4E74022E2E78022E0E7636A32
:10237000D3B1012B25D0022B25D0032B25D0042B44
:1023800025D0052B25D0062B25D0072B25D0082BB3
:1023900025D0092B25D00A2B25D00B2B01D00122CB
:1023A00003E04FF4807200E001227D4BB3FBF2F2B8
:1023B00061684B0803EB4203B3FBF1F39BB20025CA
:1023C0007DE60222F1E70422EFE70622EDE708228C
:1023D000EBE70A22E9E70C22E7E71022E5E72022F3
:1023E000E3E74022E1E78022DFE7636AD3B1012B14
:1023F00025D0022B25D0032B25D0042B25D0052B4F
:1024000025D0062B25D0072B25D0082B25D0092B2E
:1024100025D00A2B25D00B2B01D0012203E04FF44D
:10242000807200E001225F4BB3FBF2F261684B085F
:1024300003EB4203B3FBF1F39BB200253FE602221C
:10244000F1E70422EFE70622EDE70822EBE70A2294
:10245000E9E70C22E7E71022E5E72022E3E7402244
:10246000E1E78022DFE74FF4807200E001224FF4C1
:102470000043B3FBF2F261684B0803EB4203B3FB8A
:10248000F1F39BB200251AE60222F0E70422EEE700
:102490000622ECE70822EAE70A22E8E70C22E6E750
:1024A0001022E4E72022E2E74022E0E78022DEE794
:1024B0000125002303E6402D26D1636A002B00F09E
:1024C000F581012B00F0FF81022B00F0FE81032B30
:1024D00000F0FD81042B00F0FC81052B00F0FB8156
:1024E000062B00F0FA81072B00F0F981082B00F091
:1024F000F881092B00F0F7810A2B00F0F6810B2BF5
:1025000000F0D1810122D2E101250023A3F11001C5
:102510004FF6EF72914200F2FB812268D360F8E13E
:1025200001F030FB636AD3B1012B22D0022B22D001
:10253000032B22D0042B22D0052B22D0062B22D015
:10254000072B22D0082B22D0092B22D00A2B22D0F5
:102550000B2B01D0012303E04FF4807300E0012333
:10256000B0FBF3F3626803EB5203B3FBF2F39BB2ED
:10257000CCE70223F4E70423F2E70623F0E708237D
:10258000EEE70A23ECE70C23EAE71023E8E7202331
:10259000E6E74023E4E78023E2E700BF0044025877
:1025A0000090D00300093D0001F0FEFA636AD3B148
:1025B000012B23D0022B23D0032B23D0042B23D099
:1025C000052B23D0062B23D0072B23D0082B23D079
:1025D000092B23D00A2B23D00B2B01D0012303E09E
:1025E0004FF4807300E00123B0FBF3F3626803EB68
:1025F0005203B3FBF2F39BB2002587E70223F3E714
:102600000423F1E70623EFE70823EDE70A23EBE7CE
:102610000C23E9E71023E7E72023E5E74023E3E77E
:102620008023E1E703A802F0EBF8049B626AD2B1D1
:10263000012A23D0022A23D0032A23D0042A23D01C
:10264000052A23D0062A23D0072A23D0082A23D0FC
:10265000092A23D00A2A23D00B2A01D0012203E021
:102660004FF4807200E00122B3FBF2F3626803EBE7
:102670005203B3FBF2F39BB2002547E70222F3E7D4
:102680000422F1E70622EFE70822EDE70A22EBE752
:102690000C22E9E71022E7E72022E5E74022E3E702
:1026A0008022E1E7684602F0A9F9019B626AD2B193
:1026B000012A23D0022A23D0032A23D0042A23D09C
:1026C000052A23D0062A23D0072A23D0082A23D07C
:1026D000092A23D00A2A23D00B2A01D0012203E0A1
:1026E0004FF4807200E00122B3FBF2F3626803EB67
:1026F0005203B3FBF2F39BB2002507E70222F3E794
:102700000422F1E70622EFE70822EDE70A22EBE7D1
:102710000C22E9E71022E7E72022E5E74022E3E781
:102720008022E1E7814B1B6813F0200F41D07F4BE3
:102730001A68C2F3C1027E4BD340626AD2B1012A49
:1027400023D0022A23D0032A23D0042A23D0052A07
:1027500023D0062A23D0072A23D0082A23D0092AE7
:1027600023D00A2A23D00B2A01D0012203E04FF400
:10277000807200E00122B3FBF2F3626803EB5203C4
:10278000B3FBF2F39BB20025C0E60222F3E704227A
:10279000F1E70622EFE70822EDE70A22EBE70C2239
:1027A000E9E71022E7E72022E5E74022E3E780227D
:1027B000E1E7636AD3B1012B24D0022B24D0032B91
:1027C00024D0042B24D0052B24D0062B24D0072B77
:1027D00024D0082B24D0092B24D00A2B24D00B2B57
:1027E00001D0012203E04FF4807200E00122504B3F
:1027F000B3FBF2F3626803EB5203B3FBF2F39BB259
:10280000002583E60222F2E70422F0E70622EEE743
:102810000822ECE70A22EAE70C22E8E71022E6E7C2
:102820002022E4E74022E2E78022E0E7636AD3B1B6
:10283000012B24D0022B24D0032B24D0042B24D012
:10284000052B24D0062B24D0072B24D0082B24D0F2
:10285000092B24D00A2B24D00B2B01D0012203E01A
:102860004FF4807200E00122324BB3FBF2F3626856
:1028700003EB5203B3FBF2F39BB2002546E60222C0
:10288000F2E70422F0E70622EEE70822ECE70A224C
:10289000EAE70C22E8E71022E6E72022E4E74022FC
:1028A000E2E78022E0E74FF4807200E001224FF47B
:1028B0000043B3FBF2F3626803EB5203B3FBF2F3A2
:1028C0009BB2002522E60222F1E70422EFE706226E
:1028D000EDE70822EBE70A22E9E70C22E7E71022FE
:1028E000E5E72022E3E74022E1E78022DFE7012558
:1028F00000230BE601250CE001250AE0002508E095
:10290000012506E0012504E0012502E0012500E0A3
:1029100001250123A4F86A30A4F868300023E36697
:102920002367284607B0BDE8F08300BF0044025883
:102930000090D00300093D00836A13F0010F06D018
:102940000268536823F40033C16A0B435360836AFF
:1029500013F0020F06D00268536823F48033016B32
:102960000B435360836A13F0040F06D00268536868
:1029700023F48023416B0B435360836A13F0080FE9
:1029800006D00268536823F40043816B0B43536005
:10299000836A13F0100F06D00268936823F4805303
:1029A000C16B0B439360836A13F0200F06D002685B
:1029B000936823F40053016C0B439360836A13F014
:1029C000400F0AD00268536823F48013416C0B4314
:1029D0005360436CB3F5801F0BD0836A13F0800FF4
:1029E00006D00268536823F40023C16C0B43536084
:1029F00070470268536823F4C003816C0B43536033
:102A0000EBE72DE9F84305460F4616469946DDF8F3
:102A100020802C68E46937EA04030CBF01240024F9
:102A2000B44241D1B8F1FF3FF3D002F067FAA0EB16
:102A30000900404524D8B8F1000F21D02B681A684E
:102A400012F0040FE5D0DA6912F4006FE1D04FF410
:102A500000621A622A68136823F4D07313602A682C
:102A6000936823F0010393602023C5F88030C5F8F4
:102A70008430C5F88830002385F87C30032014E0CA
:102A80002A68136823F4D07313602A68936823F0CC
:102A9000010393602023C5F88030C5F884300023FB
:102AA00085F87C30032000E00020BDE8F88330B5D5
:102AB00083B004460023C0F8883002F01FFA0546B0
:102AC00023681B6813F0080F0ED123681B6813F0EE
:102AD000040F17D12023C4F88030C4F884300020BC
:102AE00084F87C0003B030BD6FF07E430093034652
:102AF00000224FF400112046FFF783FF0028E4D0A6
:102B00000320EFE76FF07E4300932B4600224FF443
:102B100080012046FFF775FF0028DBD00320E1E7A6
:102B200078B310B50446D0F880300BB32423C4F832
:102B300080302268136823F0010313602046FEF7FB
:102B40002DFC012813D0A36ABBB92268536823F473
:102B5000904353602268936823F02A0393602268AD
:102B6000136843F0010313602046FFF7A0FF10BD78
:102B700080F87C30FDF770FED8E72046FFF7DCFEDA
:102B8000E3E701207047000084B00346184A92E84A
:102B9000030004AA02E9030016496A4603C982E851
:102BA00003005A6E32B90122A3F86A20A3F8682004
:102BB00004B0704719688A68C2F34262886804A941
:102BC00001EB507010F8081CC90010F8100C91FBB4
:102BD000F0F1A3F86A1004A90A4412F8081CC9000D
:102BE00012F8102C91FBF2F2A3F86820E0E700BF86
:102BF000307000084C70000890F87C30012B18D021
:102C0000012380F87C302423C0F8803003681A68E0
:102C1000196821F00101196022F000520023436677
:102C200001680A602022C0F8802080F87C301846B5
:102C300070470220704738B590F87C30012B1DD0CA
:102C40000446012380F87C302423C0F880300368D8
:102C50001D681A6822F001021A600268936823F066
:102C6000604319439160FFF78FFF23681D602023A5
:102C7000C4F88030002084F87C0038BD0220FCE7D6
:102C800038B590F87C30012B1DD00446012380F824
:102C90007C302423C0F8803003681D681A6822F055
:102CA00001021A600268936823F06063194391601F
:102CB000FFF76AFF23681D602023C4F880300020DE
:102CC00084F87C0038BD0220FCE7F0B58BB000280A
:102CD00000F093800546046890F8BD332BB30323BE
:102CE00085F8BD33E36B13F4807F01D100232B61A2
:102CF000286800F0FDF82C4654F8107B6E460FCC87
:102D00000FC60FCC0FC694E8030086E803002B1D06
:102D10000ECB384600F0A6F8044658B1022385F8D9
:102D2000BD33012420460BB0F0BD80F8BC33FDF765
:102D3000CDFDD4E70021286800F0E0F8234616E036
:102D4000C3EBC30205EB8202012182F83D1082F839
:102D50003C30A2F84230002182F83F105164916467
:102D6000C3EBC30205EB820211650133DBB2696874
:102D70008B42E5D316E0C4EBC40305EB83030022CA
:102D800083F8FD2183F8FC4183F8FF21C3F8042276
:102D9000C3F80822C4EBC40305EB8303C3F8102275
:102DA0000134E4B2A142E6D82C4654F8107B6E46BA
:102DB0000FCC0FC60FCC0FC694E8030086E80300C3
:102DC0002B1D0ECB384600F0DFF8044660B9002317
:102DD00085F83830012385F8BD336B6A012B08D0A4
:102DE000286800F09BF99DE7022385F8BD33012494
:102DF00098E7284600F004F8F2E7012492E7000083
:102E0000034602680121C0F8FC13002083F8F40394
:102E1000936943F000639361516D024B0B4353651B
:102E2000704700BF03000010002301330C4A934297
:102E300011D80269002AF8DA036943F0010303613B
:102E400000230133064A934207D8026912F0010FAA
:102E5000F7D100207047032070470320704700BF60
:102E6000400D030084B010B5044603A880E80E00AE
:102E7000089B012B1DD1A36B23F48033A363E2686D
:102E80001A4B1340E360E36823F44013E3600F9BA5
:102E9000012B09D02046FFF7C7FF069B012B1BD053
:102EA000BDE8104004B07047E36843F48013E3606A
:102EB000F0E7E36843F04003E3602046FFF7B4FF28
:102EC0000C9B23B9A36B43F48033A363E5E7A36BA7
:102ED00023F48033A363E0E7A36843F00803A3600F
:102EE000A36843F02003A360DAE700BFBFFFBDFF84
:102EF000836823F0010383600020704708B5C3682E
:102F000023F0C043C360012909D069B9C36843F005
:102F10008043C360322001F0F7FF002008BDC36882
:102F200043F00053C360F5E70120F7E7890141F062
:102F30002001016100230133054A934205D802694B
:102F400012F0200FF7D1002070470320704700BF18
:102F5000400D03001023036100230133054A93420F
:102F600005D8026912F0100FF7D100207047032036
:102F7000704700BF400D0300D0F800381943C0F877
:102F8000001800207047000084B0F8B5044607A878
:102F900080E80E002546002306E003F1400204EB22
:102FA00082020021516001330E2BF6D9119BF3B937
:102FB000A36B23F40013A363236843F0400323604F
:102FC000236843F0800323600023C4F8003E04F527
:102FD0000066D4F80038C4F800380C9B012B10D1DF
:102FE000099B4BB900212046FFF7C6FF0DE0A36BFC
:102FF00043F40013A363E7E701212046FFF7BCFF7A
:1030000003E003212046FFF7B7FF10212046FFF71A
:103010008DFF074600B101272046FFF79BFF00B157
:103020000127002333617361F3610AE0C3B94FF0F4
:103030000060C2F8000900220A614FF67F328A6000
:103040000133079A9A4210D905EB431202F5106139
:10305000D2F800090028E9DB0020C2F80009EAE7FD
:103060004FF09040C2F80009E5E700230AE0C3B939
:103070004FF00060C2F8000B00220A614FF67F3269
:103080008A600133079A9A4210D905EB431202F580
:103090003061D2F8000B0028E9DB0020C2F8000BF9
:1030A000EAE74FF09040C2F8000BE5E7336923F4FC
:1030B000807333610A9B012B1BD00022A2616FF049
:1030C000804262611BB9A36943F01003A361A26946
:1030D0000E4B1343A3610D9B1BB1A36943F008037F
:1030E000A361119B012B0BD03846BDE8F84004B01A
:1030F0007047074A3263316B064A0A433263DCE7A2
:10310000A269054B1343A361EEE700BF00383C8082
:1031100000018000030001000400004008B5D0F861
:10312000043843F00203C0F80438032001F0ECFE39
:10313000002008BD002800F0CB8238B504460368A3
:1031400013F0010F25D0A94A136903F03803926ADE
:10315000102B15D0182B0FD06368B3F5803F3FD0EC
:10316000002B53D1A14B1A6822F480321A601A68DE
:1031700022F480221A6038E002F00302022AEBD126
:103180009A4B1B6813F4003F03D06368002B00F0D8
:10319000A182236813F0020F00F08E80934A136916
:1031A000926A13F038035AD0182B55D0E368002BDD
:1031B00000F0C8808D490A6822F0190213430B60A1
:1031C00001F09CFE0546894B1B6813F0040F40F08C
:1031D000A18001F093FE401B0228F4D9032080E275
:1031E000824A136843F48033136063682BB301F0A1
:1031F00085FE05467D4B1B6813F4003FC9D101F0E5
:103200007DFE401B6428F5D903206AE2B3F5A02FA8
:1032100009D0764B1A6822F480321A601A6822F4B8
:1032200080221A60E1E7714B1A6842F480221A602A
:103230001A6842F480321A60D7E701F05FFE054653
:103240006A4B1B6813F4003FA3D001F057FE401BEC
:103250006428F5D9032044E212F0030FA6D1634B92
:103260001B6813F0040F03D0E368002B00F03482D6
:103270005E4A136823F01903E1680B43136001F001
:103280003DFE0546594B1B6813F0040F06D101F0B3
:1032900035FE401B0228F5D9032022E201F048FE4A
:1032A00041F2030398422CD8504A536823F47C33EC
:1032B000216943EA01335360236813F0100F70D083
:1032C0004A4A136903F03803926A082B52D0182B2C
:1032D0004CD0E369002B00F0A380444A136843F00C
:1032E0008003136001F00AFE0546404B1B6813F48F
:1032F000807F7DD101F002FE401B0228F5D903201A
:10330000EFE13A4A536823F0FE43216943EA01633F
:103310005360D1E701F00CFE41F20303984208D854
:10332000324A536823F47C33216943EA0133536002
:10333000C2E72E4A536823F0FE43216943EA016342
:103340005360B9E7294A136823F00103136001F0C1
:10335000D5FD0546254B1B6813F0040FACD001F0DA
:10336000CDFD401B0228F5D90320BAE102F003028B
:10337000012AAED11D4B1B6813F4807F03D0E36993
:10338000802B40F0AB8101F0D3FD41F20303984262
:1033900022D8164A536823F0F843216A43EA81632E
:1033A0005360236813F0080F62D06369002B4BD081
:1033B0000E4A536F43F00103536701F09FFD05462A
:1033C0000A4B5B6F13F0020F52D101F097FD401BC7
:1033D0000228F5D9032084E1044AD36823F07C5302
:1033E000216A43EA0163D360DBE700BF004402586F
:1033F00001F09EFD41F20303984208D8AE4A53689B
:1034000023F0F843216A43EA81635360C9E7AA4A7B
:10341000D36823F07C53216A43EA0163D360C0E799
:10342000A54A136823F08003136001F067FD054689
:10343000A14B1B6813F4807FB3D001F05FFD401BEC
:103440000228F5D903204CE19B4A536F23F0010376
:10345000536701F053FD0546974B5B6F13F0020F66
:1034600006D001F04BFD401B0228F5D9032038E1BE
:10347000236813F0200F29D0A3699BB18E4A1368EB
:1034800043F48053136001F039FD05468A4B1B68F5
:1034900013F4005F1AD101F031FD401B0228F5D969
:1034A00003201EE1844A136823F48053136001F063
:1034B00025FD0546804B1B6813F4005F06D001F024
:1034C0001DFD401B0228F5D903200AE1236813F0F3
:1034D000040F21D1636A002B00F00281764A126941
:1034E00002F03802182A00F0FD80022B75D0724AD3
:1034F000136823F08073136001F000FD04466E4BE7
:103500001B6813F0007F00F0E18001F0F7FC001B66
:103510000228F4D90320E4E0684A136843F4807376
:10352000136001F0EBFC0546644B1B6813F4807FCD
:1035300006D101F0E3FC401B6428F5D90320D0E05C
:10354000A368012B0AD00BBB5B4B1A6F22F0010260
:103550001A671A6F22F004021A6704E0564A136FC2
:1035600043F001031367A36833B301F0C7FC0546BA
:10357000514B1B6F13F0020FACD101F0BFFC401B8D
:1035800041F288339842F3D90320AAE0052B09D0F1
:10359000494B1A6F22F001021A671A6F22F00402D7
:1035A0001A67E0E7444B1A6F42F004021A671A6F79
:1035B00042F001021A67D6E701F0A0FC05463E4B37
:1035C0001B6F13F0020F85D001F098FC401B41F2F5
:1035D00088339842F3D9032083E0374A136823F0F5
:1035E0008073136001F08AFC0546334B1B6813F0AF
:1035F000007F06D001F082FC401B0228F5D9032091
:103600006FE02D4B996A2E4A0A40A16AE06A41EAAE
:1036100000110A439A62226B013AC2F30802616BFD
:103620000139490289B20A43A16B0139090401F445
:10363000FE010A43E16B0139090601F0FE410A432C
:103640001A63DA6A22F00102DA62596B1D4A0A40F3
:10365000A16C42EAC1025A63DA6A22F00C02216CC0
:103660000A43DA62DA6A22F00202616C0A43DA6221
:10367000DA6A42F48032DA62DA6A42F40032DA62FA
:10368000DA6A42F48022DA62DA6A42F00102DA622D
:103690001A6842F080721A6001F030FC0446064B52
:1036A0001B6813F0007F0FD101F028FC001B0228DB
:1036B000F5D9032015E000BF004402580048025825
:1036C0000CFCFFFF0700FFFF00200AE0002008E0DD
:1036D00001207047012004E0012002E0012000E009
:1036E000002038BD0120FCE7744B1B6903F0380350
:1036F000102B00F0DF80182B10D00BB170487047F2
:103700006E4B1B6813F0200F00F0D6806B4B1868CF
:10371000C0F3C1006B4B23FA00F0704710B4674A46
:10372000916A01F00301946AC4F30510D36A03F0AF
:103730000103526BC2F3CC0203FB02F307EE903A93
:10374000F8EE677A14F47C7F00F09480012966D04B
:10375000022900F09280E1B107EE100AF8EE476A04
:103760009FED596A86EE267A544B1B6BC3F3080310
:1037700006EE903AF8EE666A9FED546A67EE867A36
:1037800076EEA77AF7EE006A77EEA67A27EE277A2A
:1037900061E04A4B1B6813F0200F23D047490A68A9
:1037A000C2F3C102474BD34007EE103AF8EE476A26
:1037B00007EE100AB8EE476A86EE867A0B6BC3F303
:1037C000080306EE903AF8EE666A9FED406A67EEEF
:1037D000867A76EEA77AF7EE006A77EEA67A27EE7B
:1037E000277A38E007EE100AF8EE476A9FED386A4C
:1037F00086EE267A314B1B6BC3F3080306EE903A34
:10380000F8EE666A9FED316A67EE867A76EEA77A01
:10381000F7EE006A77EEA67A27EE277A1BE007EE2E
:10382000100AF8EE476A9FED286A86EE267A234B47
:103830001B6BC3F3080306EE903AF8EE666A9FED41
:10384000236A67EE867A76EEA77AF7EE006A77EE5D
:10385000A67A27EE277A194B1B6BC3F34623013355
:1038600007EE903AF8EE677AC7EE276AFCEEE67A42
:1038700017EE900A5DF8044B704707EE100AF8EE59
:10388000476A9FED146A86EE267A0C4B1B6BC3F3D6
:10389000080306EE903AF8EE666A9FED0C6A67EE52
:1038A000867A76EEA77AF7EE006A77EEA67A27EEAA
:1038B000277AD0E70848704702487047004402580A
:1038C00000093D000090D0030024744A0000003934
:1038D0000024744C0024F44A00127A00002800F0FE
:1038E000288170B50D460446964B1B6803F00F0304
:1038F0008B420BD2934A136823F00F030B431360E0
:10390000136803F00F038B4240F01581236813F016
:10391000040F0CD022698C4B9B6903F070039A4210
:1039200005D989498B6923F070031A438A6123689A
:1039300013F0080F0CD06269834BDB6903F070034E
:103940009A4205D98049CB6923F070031A43CA61B2
:10395000236813F0100F0CD0A2697B4BDB6903F4D2
:10396000E0639A4205D97849CB6923F4E0631A43AE
:10397000CA61236813F0200F0CD0E269724B1B6AF6
:1039800003F070039A4205D96F490B6A23F0700364
:103990001A430A62236813F0020F0CD0E2686A4BE4
:1039A0009B6903F00F039A4205D967498B6923F09D
:1039B0000F031A438A61236813F0010F41D0624A52
:1039C000936923F47063A1680B4393616368022BCE
:1039D0000AD0032B27D0012B2CD05B4A126812F09F
:1039E000040F06D10120A3E0126812F4003F00F09A
:1039F000A48055490A6922F0070213430B6101F0C4
:103A00007DFA0646504B1B6903F038036268B3EB3E
:103A1000C20F16D001F072FA801B41F2883398422F
:103A2000F0D9032084E0484A126812F0007FE0D108
:103A300001207DE0444A126812F4807FD9D1012030
:103A400076E0236813F0020F0CD0E2683E4B9B69CE
:103A500003F00F039A4205D23B498B6923F00F0311
:103A60001A438A61374B1B6803F00F03AB420AD934
:103A7000344A136823F00F032B431360136803F0D9
:103A80000F03AB425BD1236813F0040F0CD0226903
:103A90002D4B9B6903F070039A4205D22A498B692A
:103AA00023F070031A438A61236813F0080F0CD0C7
:103AB0006269254BDB6903F070039A4205D2224903
:103AC000CB6923F070031A43CA61236813F0100F07
:103AD0000CD0A2691C4BDB6903F4E0639A4205D267
:103AE0001949CB6923F4E0631A43CA61236813F0D0
:103AF000200F0CD0E269144B1B6A03F070039A424A
:103B000005D211490B6A23F070031A430A62FFF7CA
:103B1000EBFD0D4B9B69C3F303230C4AD35C03F00D
:103B20001F03D8400A4B18600A4B1868FCF712FFB5
:103B300070BD012070470120FAE70120F8E701205D
:103B4000F6E700BF002000520044025858700008F9
:103B5000140000201000002008B501F04DF8064BBD
:103B60009B6903F00F03054AD35C03F01F03D840A1
:103B7000034B186008BD00BF00440258587000088D
:103B80001800002008B5FFF7E7FF054BDB69C3F31A
:103B90000213044AD35C03F01F03D84008BD00BFE2
:103BA000004402585870000808B5FFF7D5FF054BD0
:103BB000DB69C3F30223044AD35C03F01F03D8403C
:103BC00008BD00BF00440258587000083F2303603E
:103BD000114B1A6902F0070242609A6902F470629E
:103BE00082609A6902F00F02C2609A6902F0700264
:103BF0000261DA6902F070024261DA6902F4E0629D
:103C000082611B6A03F07003C361044B1B6803F0FD
:103C10000F030B60704700BF0044025800200052A1
:103C2000404B9B6A03F00303032B79D070B5054624
:103C30000E463C4A136823F08063136001F05EF97E
:103C40000446384B1B6813F0006F06D001F056F99C
:103C5000031B022BF5D9032070BD324B9A6A22F464
:103C60007C32296842EA01329A626A68013AC2F3F8
:103C70000802A9680139490289B20A43E968013991
:103C8000090401F4FE010A4329690139090601F01A
:103C9000FE410A439A63DA6A22F0C00269690A4364
:103CA000DA62DA6A22F02002A9690A43DA62DA6A81
:103CB00022F01002DA62D96B1B4A0A40E96942EA33
:103CC000C102DA63DA6A42F01002DA62C6B91A4651
:103CD000DB6A43F40023D362124A136843F0806323
:103CE000136001F00BF904460E4B1B6813F0006FD4
:103CF00014D101F003F9001B0228F5D90320ABE72A
:103D0000012E05D0074AD36A43F40013D362E3E7D8
:103D1000044AD36A43F48013D362DDE700209BE7B3
:103D200001207047004402580700FFFF404B9B6A88
:103D300003F00303032B79D070B505460E463C4AC9
:103D4000136823F08053136001F0D8F80446384B11
:103D50001B6813F0005F06D001F0D0F8031B022BA4
:103D6000F5D9032070BD324B9A6A22F07C72296823
:103D700042EA01529A626A68013AC2F30802A968EB
:103D80000139490289B20A43E9680139090401F499
:103D9000FE010A4329690139090601F0FE410A437F
:103DA0001A64DA6A22F4406269690A43DA62DA6AFA
:103DB00022F40072A9690A43DA62DA6A22F4807294
:103DC000DA62596C1B4A0A40E96942EAC1025A6444
:103DD000DA6A42F48072DA62C6B91A46DB6A43F4E0
:103DE0008003D362124A136843F08053136001F0DA
:103DF00085F804460E4B1B6813F0005F14D101F0E8
:103E00007DF8001B0228F5D90320ABE7012E05D071
:103E1000074AD36A43F08073D362E3E7044AD36A64
:103E200043F40003D362DDE700209BE701207047E5
:103E3000004402580700FFFFF8B50446036813F07A
:103E4000006F30D0436EB3F5001F26D00ED8EBB113
:103E5000B3F5801F07D102210430FFF7E1FE0546CC
:103E600045B12E4621E0012635461EE0B3F5401F40
:103E700009D10025964A136D23F44013616E0B435C
:103E80001365002611E0012635460EE0904AD36AFC
:103E900043F40033D3620025ECE702212430FFF71E
:103EA00045FF0546DCE700263546236813F4807F8E
:103EB00014D0636D042B30D8DFE803F00322280808
:103EC0000800834AD36A43F40033D36245BB804A77
:103ED000136D23F00703616D0B431365236813F41F
:103EE000007F2FD0A36D802B4AD01ED8002B41D04D
:103EF000402B17D10021201DFFF792FE054619E047
:103F00000021201DFFF78CFE0546DFE7002104F1AC
:103F10002400FFF70BFF0546D8E701263546DDE70D
:103F20002E46DBE7012635460CE0C02B02D0B3F568
:103F3000807F1CD15DBB664A136D23F4E073A16DD5
:103F40000B431365236813F4806F34D0D4F8A43086
:103F5000B3F5800F4DD01FD8002B44D0B3F5001F10
:103F600017D10021201DFFF75BFE05461AE0012650
:103F70003546E7E7564AD36A43F40033D362D9E7BC
:103F8000002104F12400FFF7D1FE0546D2E72E46BA
:103F9000D8E7012635460EE0B3F5C00F02D0B3F5E1
:103FA000000F1DD165BB4A4A936D23F46003D4F81A
:103FB000A4100B439365236813F4006F35D0D4F835
:103FC000A830B3F1007F53D01FD8002B4AD0B3F1F3
:103FD000807F17D10021201DFFF722FE05461AE041
:103FE00001263546E7E73A4AD36A43F40033D36201
:103FF000D8E7002104F12400FFF798FE0546D1E739
:104000002E46D8E7012635460FE0B3F1407F02D0B7
:10401000B3F1806F23D1002D31D12D4A936D23F060
:10402000E063D4F8A8100B439365236813F0007F76
:104030002ED0A36C202B3FD026D833B1102B20D10B
:10404000234AD36A43F40033D362002D3AD1204A85
:10405000D36C23F03003A16C0B43D36418E001262A
:104060003546E2E71A4AD36A43F40033D362D2E713
:10407000002104F12400FFF759FE0546CBE72E4648
:10408000D3E70126354603E0302BDED00126354646
:10409000236813F4805F2CD0E36DB3F5005F4DD03F
:1040A00018D8002B44D0B3F5805F0DD10021201D1E
:1040B000FFF7B6FD054613E00221201DFFF7B0FD16
:1040C0000546C2E72E46E3E70126354611E000BF6C
:1040D00000440258B3F5405F02D0B3F5804F24D1BD
:1040E000002D32D1984A136D23F4E043E16D0B4368
:1040F0001365236813F4005F37D0236EB3F5003FD8
:1041000051D027D83BB1B3F5803F20D10121201DEC
:10411000FFF786FD0546002D4CD18B4A136D23F425
:10412000E023216E0B4313651FE001263546E0E7CF
:10413000854AD36A43F40033D362D1E7002104F106
:104140002400FFF7F3FD0546CAE72E46D1E7012616
:1041500035460AE0B3F5802FDDD0B3F5A02FDAD0D5
:10416000B3F5403FD7D001263546236813F4804F7E
:1041700030D0D4F8AC30B3F1005F44D01FD83BB19D
:10418000B3F1805F18D10121201DFFF749FD0546DD
:10419000002D3FD16C4A936D23F0E043D4F8AC106E
:1041A0000B43936516E0012104F12400FFF7BEFDE7
:1041B0000546B0E72E46D8E7012635460AE0B3F1BA
:1041C000804FE5D0B3F1A04FE2D0B3F1405FDFD034
:1041D00001263546236813F4004F09D0E36EB3F18E
:1041E000805F19D0B3F1005F24D0D3B101263546EA
:1041F000236813F0807F3DD0636C032B36D8DFE853
:1042000003F026212F26012104F12400FFF78EFD63
:104210000546BDE72E46DDE74B4AD36A43F400333B
:10422000D3626DB9484A136D23F04053E16E0B43DE
:104230001365DDE70121201DFFF7F2FC0546F0E7DD
:104240002E46D5E7404AD36A43F40033D36285B99A
:104250003D4AD36C23F00303616C0B43D36409E044
:104260000221201DFFF7DCFC0546F0E7012635465C
:1042700000E02E46236813F4800F1FD1236813F04B
:10428000010F00F09B80A36F282B00F29580DFE8E0
:1042900003F083939393939393937E939393939346
:1042A00093938C93939393939393839393939393F5
:1042B000939383939393939393938300234A1368E5
:1042C00043F48073136000F019FE07461F4B1B6810
:1042D00013F4807F05D100F011FEC01B6428F5D9CE
:1042E0000325002D4FD1184B1B6FD4F8B02053403D
:1042F00013F4407F0CD0144B1A6F22F44072196FE4
:1043000041F480311967196F21F4803119671A67F8
:10431000D4F8B030B3F5807F1AD0002D35D1D4F861
:10432000B03003F44072B2F5407F22D0064A1369E0
:1043300023F47C53136104490B6FD4F8B020C2F30B
:104340000B0213430B6799E70044025800480258D8
:1043500000F0D4FD0746874B1B6F13F0020FDCD132
:1043600000F0CCFDC01B41F288339842F3D90325FD
:10437000D3E78048026922F47C527F4901EA131393
:1043800013430361D7E72E4678E72E4676E70121EF
:10439000201DFFF745FC0546E5B9764A536D23F02D
:1043A0003803A16F0B43536508E0012104F1240099
:1043B000FFF7BCFC0546EFE701263546236813F0FE
:1043C000020F22D0636F052B1BD8DFE803F00A052C
:1043D000130A0A0A2E46F1E70121201DFFF720FCEF
:1043E00005468DB9634A536D23F00703616F0B4394
:1043F00053650AE0012104F12400FFF797FC05460C
:10440000EFE70126354600E02E46236813F0040F3F
:1044100022D0D4F89030052B1AD8DFE803F0080337
:10442000120808080121201DFFF7FAFB054695B97F
:10443000504A936D23F00703D4F890100B43936513
:104440000AE0012104F12400FFF770FC0546EEE7C5
:104450000126354600E02E46236813F0200F27D0B2
:10446000D4F88C30B3F1005F40D016D83BB1B3F133
:10447000805F0FD10021201DFFF7D2FB0546002DE4
:104480003BD13C4A536D23F0E043D4F88C100B43EE
:1044900053650DE0012635460AE0B3F1804FEED0BA
:1044A000B3F1A04FEBD0B3F1405FE8D00126354621
:1044B000236813F0400F30D0D4F89830B3F5006F74
:1044C0004BD01FD83BB1B3F5806F18D10021201D10
:1044D000FFF7A6FB0546002D46D1264A936D23F42F
:1044E000E053D4F898100B43936516E0022104F1D1
:1044F0002400FFF71BFC0546C1E72E46D8E701263E
:1045000035460AE0B3F5805FE5D0B3F5A05FE2D0B1
:10451000B3F5406FDFD001263546236813F0800FD6
:1045200037D0D4F89C30B3F5804F00F09E8025D86A
:104530003BB1B3F5005F19D10021201DFFF770FBDF
:104540000546002D40F098800A4A936D23F460439D
:10455000D4F89C100B4393651BE0022104F1240066
:10456000FFF7E4FB0546B6E72E46D6E701263546BB
:104570000FE000BF00440258CFFFFF00B3F5004F2B
:10458000DFD0B3F5204FDCD0B3F5C04FD9D0012632
:104590003546236813F0080F0AD0D4F88030B3F5FD
:1045A000805F6BD08C494A6D22F4405213434B65B7
:1045B000236813F0100F0AD0D4F89430B3F5807F3D
:1045C00065D085498A6D22F4407213438B65236858
:1045D00013F4002F0BD0D4F8A030B3F5803F6ED089
:1045E000B3F5003F61D0002B5AD001263546236831
:1045F00013F4802F0CD0D4F88430B3F5001F76D09C
:10460000B3F5401F69D0B3F5801F61D00126354650
:10461000236813F4803F07D0E36C002B70D0B3F510
:10462000803F7BD001263546236813F0005F7DD1A3
:10463000236813F4003F00F08680E36FB3F5807FBA
:1046400000F0BA807CD9B3F5007F03D0B3F5407F8A
:1046500040F0B080002D40F0B5805F4A536D23F4E8
:104660004073E16F0B4353656DE0022104F12400B8
:10467000FFF75CFB054664E72E468AE7022104F15A
:104680002400FFF753FB002892D0012690E7022177
:1046900004F12400FFF74AFB002898D0012696E792
:1046A0000021201DFFF7BCFA05467DB94A4A936DEB
:1046B00023F44033D4F8A0100B43936597E702210D
:1046C00004F12400FFF732FB0546EEE72E468EE7A5
:1046D000414AD36A43F40033D3627DB93E4A536DF5
:1046E00023F44013D4F884100B43536590E7012161
:1046F00004F12400FFF71AFB0546EEE72E4687E794
:10470000354AD36A43F40033D3626DB9324AD36C6D
:1047100023F48033E16C0B43D36485E70221201D31
:10472000FFF77EFA0546F0E72E467DE7022104F109
:104730002400FFF7FBFA00283FF47AAF012677E761
:10474000002B87D00126236813F4801F06D0224A4D
:10475000136D23F00043216F0B431365236813F09F
:10476000805F07D01C4A136923F48043D4F8B41047
:104770000B431361236813F4001F06D0164A136D10
:1047800023F08073A16E0B431365236813F0804FF1
:1047900009D0114B1A6922F400421A611A69D4F83F
:1047A000B8100A431A612368002B0DDB06B10126FD
:1047B0003046F8BD0126C6E7074AD36A43F4003302
:1047C000D36247E72E46BEE7034AD36C23F040533B
:1047D000216D0B43D364E9E70044025808B5FFF7A5
:1047E000BBF9054B1B6AC3F30213044AD35C03F005
:1047F0001F03D84008BD00BF00440258587000088D
:1048000030B4784A916A946AC4F30535D36A03F0E8
:104810001003D26BC2F3CC0203FB02F314F47C3F0F
:1048200000F0DA8001F0030107EE903AF8EE677AC3
:10483000012966D0022900F0B280E1B107EE105ADA
:10484000B8EE477A9FED686AC6EE076A654B9B6BC8
:10485000C3F3080307EE103AB8EE477A9FED636A98
:1048600067EE867A77EE277AB7EE007A77EE877A68
:1048700066EEA76A61E05B4B1B6813F0200F23D044
:1048800058490A68C2F3C102594BD34007EE103AA7
:10489000B8EE477A06EE905AB8EE666AC7EE066A38
:1048A0008B6BC3F3080307EE103AB8EE477A9FED1F
:1048B0004F6A67EE867A77EE277AB7EE007A77EE60
:1048C000877A66EEA76A38E007EE105AB8EE477AA4
:1048D0009FED486AC6EE076A424B9B6BC3F3080321
:1048E00007EE103AB8EE477A9FED406A67EE867A97
:1048F00077EE277AB7EE007A77EE877A66EEA76AC8
:104900001BE007EE105AB8EE477A9FED376AC6EE05
:10491000076A344B9B6BC3F3080307EE103AB8EEFB
:10492000477A9FED326A67EE867A77EE277AB7EE9E
:10493000007A77EE877A66EEA76A2A4A936BC3F30A
:10494000462307EE103AB8EE477AB7EE006A37EE24
:10495000067AC6EE877AFCEEE77AC0ED007A936BB2
:10496000C3F3064307EE103AB8EE477A37EE067AFD
:10497000C6EE877AFCEEE77AC0ED017A936BC3F35B
:10498000066307EE903AF8EE677A77EE867A86EE5F
:10499000A77ABCEEC77A80ED027A30BC704707EE8A
:1049A000105AB8EE477A9FED146AC6EE076A0D4BAF
:1049B0009B6BC3F3080307EE103AB8EE477A9FEDFE
:1049C0000B6A67EE867A77EE277AB7EE007A77EE93
:1049D000877A66EEA76AB0E70023036043608360CE
:1049E000DBE700BF004402580024744A000000398D
:1049F0000090D0030024744C0024F44A30B4784A68
:104A0000916A946AC4F30555D36A03F48073526CB7
:104A1000C2F3CC0203FB02F314F07C7F00F0DA80D7
:104A200001F0030107EE903AF8EE677A012966D0AB
:104A3000022900F0B280E1B107EE105AB8EE477AD1
:104A40009FED686AC6EE076A654B1B6CC3F30803EB
:104A500007EE103AB8EE477A9FED636A67EE867A02
:104A600077EE277AB7EE007A77EE877A66EEA76A56
:104A700061E05B4B1B6813F0200F23D058490A6894
:104A8000C2F3C102594BD34007EE103AB8EE477A51
:104A900006EE905AB8EE666AC7EE066A0B6CC3F370
:104AA000080307EE103AB8EE477A9FED4F6A67EEBB
:104AB000867A77EE277AB7EE007A77EE877A66EE17
:104AC000A76A38E007EE105AB8EE477A9FED486AB9
:104AD000C6EE076A424B1B6CC3F3080307EE103A9D
:104AE000B8EE477A9FED406A67EE867A77EE277ACE
:104AF000B7EE007A77EE877A66EEA76A1BE007EEDC
:104B0000105AB8EE477A9FED376AC6EE076A344B03
:104B10001B6CC3F3080307EE103AB8EE477A9FED1B
:104B2000326A67EE867A77EE277AB7EE007A77EE0A
:104B3000877A66EEA76A2A4A136CC3F3462307EE08
:104B4000103AB8EE477AB7EE006A37EE067AC6EE4C
:104B5000877AFCEEE77AC0ED007A136CC3F3064364
:104B600007EE103AB8EE477A37EE067AC6EE877A45
:104B7000FCEEE77AC0ED017A136CC3F3066307EE2F
:104B8000903AF8EE677A77EE867A86EEA77ABCEEF0
:104B9000C77A80ED027A30BC704707EE105AB8EE43
:104BA000477A9FED146AC6EE076A0D4B1B6CC3F380
:104BB000080307EE103AB8EE477A9FED0B6A67EEEE
:104BC000867A77EE277AB7EE007A77EE877A66EE06
:104BD000A76AB0E70023036043608360DBE700BFA0
:104BE000004402580024744A000000390090D003A9
:104BF0000024744C0024F44A08B5FEF775FD064BFA
:104C00009B69C3F30323054AD35C03F01F03D84019
:104C1000034B186008BD00BF0044025858700008DC
:104C200014000020F0B482B000223AE0092400E031
:104C30000024B4403C4302356F4E46F825406F4C8B
:104C40002568DC4325EA03064F6817F4803F01D04E
:104C500043EA0506694D2E606E6804EA06054F6852
:104C600017F4003F01D043EA0605644E75604FF02B
:104C7000B0452D6804EA05064F6817F4801F01D07F
:104C800043EA05064FF0B0452E606D682C404E6833
:104C900016F4001F01D043EA05044FF0B0435C60F6
:104CA00001320B6833FA02F400F0A2800124944030
:104CB0002340F5D04D68122D18BF022D10D1D60813
:104CC000083650F826C002F00705AF000F25BD409A
:104CD0002CEA050C0D69BD4045EA0C0540F826504C
:104CE000D0F800C056000325B540EF432CEA050C70
:104CF0004D6805F00305B54045EA0C0505604D68B3
:104D000005F1FF3C112D18BFBCF1010F01D9122D87
:104D100010D1856807EA050CCD68B54045EA0C0559
:104D20008560456825EA04044D68C5F30015954083
:104D300025434560C46827408C68B4403C43C46048
:104D40004C6814F0805FABD02D4CD4F8F45045F093
:104D50000205C4F8F450D4F8F44004F002040194BD
:104D6000019C9508AE1C244C54F8267002F00304F4
:104D7000A6000F24B44027EA0407224CA0423FF4C7
:104D800057AF04F58064A04222D004F58064A042AD
:104D900020D004F58064A0421ED004F58064A042B7
:104DA0001CD004F58064A0421AD004F58064A042AF
:104DB00018D004F58064A04216D004F58064A042A7
:104DC00014D004F58064A0423FF430AF0A2430E7E9
:104DD00001242EE702242CE703242AE7042428E7F1
:104DE000052426E7062424E7072422E7082420E7F1
:104DF00002B0F0BC704700BF0004005880000058AB
:104E000000440258000002580AB181617047090449
:104E100081617047436931EA030301D081617047C2
:104E20000904816170470000124BDB6813F0040F26
:104E300005D1104BDB6803F00703834218D110B58E
:104E40000C4AD36823F007031843D06000F056F8EB
:104E50000446084B5B6813F4005F07D100F04EF87E
:104E6000001BB0F57A7FF4D9032000E0002010BDCC
:104E70000120704700480258024AD36843F080730B
:104E8000D36070470048025810B50320FBF7EEFDD1
:104E9000FEF72AFC0F498B69C3F303230E4AD35C48
:104EA00003F01F03D8400D4B18608B6903F00F030C
:104EB000D35C03F01F03D840094B18600020FBF7B8
:104EC00049FD10B10124204610BD0446FBF70EFC3D
:104ED000F9E700BF00440258587000081400002091
:104EE00018000020034B1B78034A11680B44136021
:104EF000704700BF0C0000207C4F0020014B186859
:104F0000704700BF7C4F002038B50446FFF7F6FF1E
:104F10000546B4F1FF3F02D0044B1B781C44FFF759
:104F2000EDFF401BA042FAD338BD00BF0C000020AB
:104F3000014B1868000C70470010005C034A53686E
:104F400023F4600303435360704700BF000400581C
:104F5000184AD2F8883043F47003C2F88830164BF0
:104F60001A6842F001021A6000221A611868134997
:104F7000014019609A61DA611A629A62DA621A6310
:104F80005A639A63DA631A645A64196821F48021B7
:104F900019601A660A4B1A680A4B1340B3F1005F96
:104FA00002D2094B01221A60024B4FF000629A6054
:104FB000704700BF00ED00E0004402587FEDF6EAC4
:104FC0000010005C0000FFFF0881005100F10803A1
:104FD00043604FF0FF328260C360036100230360CF
:104FE000704700230361704743684B609A688A608A
:104FF000516099600861036801330360704730B401
:105000000D68B5F1FF3F11D000F108031C465B6845
:105010001A68AA42FAD963684B6099608C60616033
:10502000086103680133036030BC70470469F2E72C
:105030000369416882688A60416851605A688242A7
:1050400006D0002202611A68013A1A601868704797
:1050500082685A60F5E710B5044601F0CBFCA26BFC
:10506000E36B9A4204D0002401F0E6FC204610BD18
:105070000124F9E710B5044601F0BCFCA36B23B989
:10508000012401F0D9FC204610BD0024F9E770B5D9
:1050900004461546866B026C5AB903681BB10020A2
:1050A0000136A66370BD406800F0CCFF002363604A
:1050B000F6E76DB9806801F043FE226CA3681344E3
:1050C000A3606268934219D32368A3602846E7E788
:1050D000C06801F035FE226C5142E3689B1AE36020
:1050E0002268934202D263680B44E360022D01D030
:1050F0000020D5E726B1013E0020D1E72846CFE7C2
:105100000020CDE70346026C6AB110B50846D968A5
:105110001144D9605C68A14201D31968D960D9688B
:1051200001F00EFE10BD704738B5054601F062FC77
:1051300095F8454064B203E000F06EFF013C64B2B4
:10514000002C08DD6B6A33B105F1240000F0D0FEBD
:105150000028F3D0F0E7FF2385F8453001F06CFC20
:1051600001F048FC95F8444064B203E000F054FFBD
:10517000013C64B2002C08DD2B6933B105F110004D
:1051800000F0B6FE0028F3D0F0E7FF2385F84430A6
:1051900001F052FC38BD000038B5E0B10D460446C0
:1051A00001F028FC2168E26B236C03FB02106060B5
:1051B0000020A063A160013A02FB0313E360FF2318
:1051C00084F8443084F84530EDB9236963B901F0BF
:1051D00033FC012038BD4FF0500383F31188BFF337
:1051E0006F8FBFF34F8FFEE704F1100000F080FED9
:1051F0000028ECD0084B4FF080521A60BFF34F8F5D
:10520000BFF36F8FE3E704F11000FFF7DFFE04F157
:105210002400FFF7DBFEDAE704ED00E038B51D46B9
:10522000049C0B4649B92460E063236401212046B5
:10523000FFF7B2FF84F84C5038BD2260F4E740B964
:105240004FF0500383F31188BFF36F8FBFF34F8F7D
:10525000FEE730B585B01C467BB10B1E18BF01239D
:10526000002A08BF01238BB94FF0500383F3118844
:10527000BFF36F8FBFF34F8FFEE74FF0500383F301
:105280001188BFF36F8FBFF34F8FFEE7B1FA81F341
:105290005B09002A18BF012343B94FF0500383F381
:1052A0001188BFF36F8FBFF34F8FFEE75023039337
:1052B000039B502B08D04FF0500383F31188BFF3AA
:1052C0006F8FBFF34F8FFEE7012384F846300094C1
:1052D0009DF82030FFF7A2FF204605B030BD00004A
:1052E000F0B585B0019288B10E461D460446B1B1B5
:1052F000022D20D1E36B012B1DD04FF0500383F31F
:105300001188BFF36F8FBFF34F8FFEE74FF050034D
:1053100083F31188BFF36F8FBFF34F8FFEE7036CEA
:10532000002BE5D04FF0500383F31188BFF36F8F4C
:10533000BFF34F8FFEE700F075FE074658B9019B9B
:10534000002B44D04FF0500383F31188BFF36F8FCD
:10535000BFF34F8FFEE7002739E02A46314620464B
:10536000FFF795FE626A6AB938B13C4B4FF0805244
:105370001A60BFF34F8FBFF36F8F01F05DFB012009
:1053800005B0F0BD04F1240000F0B2FD0028F4D017
:10539000324B4FF080521A60BFF34F8FBFF36F8FC5
:1053A000EBE701F049FB0020EAE702A800F0E6FD88
:1053B000012719E0002384F8443021E0002384F819
:1053C000453023E02046FFF7AFFE00F06FFC01F010
:1053D00011FBA26BE36B9A42BFD3022DBDD0019BA0
:1053E000002BDED0002FE0D001F026FB00F0C4FB44
:1053F00001F000FB94F844305BB2B3F1FF3FD9D029
:1054000094F845305BB2B3F1FF3FD7D001F014FB05
:1054100001A902A800F0BEFDC8B92046FFF71BFE97
:105420000028CFD0019904F1100000F02DFD204696
:10543000FFF77AFE00F03AFC0028C8D1074B4FF086
:1054400080521A60BFF34F8FBFF36F8FBFE72046C4
:10545000FFF76AFE00F02AFC002091E704ED00E06F
:105460002DE9F84390B1894690461F460446B1B1F4
:10547000022F20D1E36B012B1DD04FF0500383F39B
:105480001188BFF36F8FBFF34F8FFEE74FF05003CC
:1054900083F31188BFF36F8FBFF34F8FFEE7036C69
:1054A000002BE5D04FF0500383F31188BFF36F8FCB
:1054B000BFF34F8FFEE701F0C7FBEFF311864FF00C
:1054C000500383F31188BFF36F8FBFF34F8FA26B2D
:1054D000E36B9A4206D3022F04D0002086F3118892
:1054E000BDE8F88394F845506DB23A4649462046E7
:1054F000FFF7CDFDB5F1FF3F05D06B1C5BB284F823
:1055000045300120EAE7636A0BB90120E6E704F1C0
:10551000240000F0EDFC30B1B8F1000F05D00120FF
:10552000C8F80000DAE70120D8E70120D6E700003C
:10553000F0B585B0019290B10E460446C1B100F0BD
:1055400071FD074600BB019B002B5CD04FF0500360
:1055500083F31188BFF36F8FBFF34F8FFEE74FF0D8
:10556000500383F31188BFF36F8FBFF34F8FFEE7B4
:10557000036C002BE3D04FF0500383F31188BFF38B
:105580006F8FBFF34F8FFEE700273CE03146204688
:10559000FFF7B8FD013DA563236923B901F04CFA7B
:1055A000012005B0F0BD04F1100000F0A1FC0028BE
:1055B000F4D0354B4FF080521A60BFF34F8FBFF3DA
:1055C0006F8FEBE701F038FA0020EAE702A800F05D
:1055D000D5FC012721E0002384F8443029E0002392
:1055E00084F845302BE02046FFF79EFD00F05EFB7F
:1055F00009E02046FFF798FD00F058FB2046FFF732
:1056000039FD00283DD101F0F5F9A56B002DBDD184
:10561000019B002BD6D0002FD8D001F00DFA00F05E
:10562000ABFA01F0E7F994F844305BB2B3F1FF3F15
:10563000D1D094F845305BB2B3F1FF3FCFD001F049
:10564000FBF901A902A800F0A5FC0028D1D1204651
:10565000FFF710FD0028C6D0019904F1240000F0E6
:1056600013FC2046FFF760FD00F020FB0028CAD1A4
:10567000054B4FF080521A60BFF34F8FBFF36F8F0F
:10568000C1E700208DE700BF04ED00E0002300E04B
:105690000133072B0BD8064A52F83320002AF7D1E2
:1056A000034A42F8331002EBC30358607047704757
:1056B000804F002070B504460D46164601F09AF959
:1056C00094F844305BB2B3F1FF3F0DD094F845300D
:1056D0005BB2B3F1FF3F0BD001F0AEF9A36B5BB14E
:1056E0002046FFF721FD70BD002384F84430EDE72C
:1056F000002384F84530EFE73246294604F12400C0
:1057000000F0DAFBECE70000084B1B681B6823B9CC
:10571000074B4FF0FF321A607047044B1B68DB6881
:10572000DB685A68024B1A60704700BF0001002016
:10573000A80500202DE9F84F80460D46934699466E
:105740000A9EDDF82CA00C9C9200A521206B01F094
:1057500005FB276B6FF040435B4407EB830727F0A3
:10576000070700220F2A06D8AB5CA11881F8343055
:105770000BB10132F6E7002384F84330372E00D90D
:105780003726E662E66400252565201DFFF729FC23
:1057900004F11800FFF725FC2461C6F13806A66164
:1057A0006462656584F858504A464146384601F0BF
:1057B000F5F82060BAF1000F01D0CAF80040BDE84A
:1057C000F88F000038B50024372C08D804EB840289
:1057D00093000E481844FFF7F9FB0134F4E70C4D31
:1057E0002846FFF7F3FB0B4C2046FFF7EFFB0A4878
:1057F000FFF7ECFB0948FFF7E9FB0948FFF7E6FB79
:10580000084B1D60084B1C6038BD00BF080100201C
:105810008005002094050020B0050020DC05002054
:10582000C8050020000100200401002010B5044636
:1058300001F0E0F8214A136801331360204B1B6824
:105840005BB1204B1B686BB91D4B1B68DA6AE36ABE
:105850009A4207D81A4B1C6004E0194B1C6013686D
:10586000012B27D0184A1368013313606364E06A80
:10587000164B1B68984201D9144B186000EB80004E
:10588000211D134B03EB8000FFF7AEFB01F0D4F8B2
:105890000C4B1B686BB10A4B1B68DA6AE36A9A42CD
:1058A00007D20C4B4FF080521A60BFF34F8FBFF3FB
:1058B0006F8F10BDFFF786FFD4E700BF680500209B
:1058C000FC000020C4050020780500207C05002095
:1058D0000801002004ED00E010B5044690F85930AE
:1058E00063B1012B11D0022B0ED04FF0500383F384
:1058F0001188BFF36F8FBFF34F8FFEE7006B00F08F
:10590000D7FF204600F0D4FF10BD00F0D1FFFBE729
:105910000F4B1B68D3B110B501F06CF80D4BDB6871
:10592000DC68201DFFF784FB0B4A1368013B136002
:10593000074A1368013B136001F07EF82046FFF729
:10594000CBFF034B1B68002BE6D110BD704700BF97
:105950006C050020DC0500206805002008B5FFF775
:10596000D7FF064B1B68012BF9D9054B4FF080522E
:105970001A60BFF34F8FBFF36F8FF0E7080100206D
:1059800004ED00E070B504460D46194B1E68194B36
:1059900018680430FFF74CFBB4F1FF3F14BF00233D
:1059A0000123002D08BF00236BB93444114B1B6841
:1059B0005C60A6420ED9104B18680E4B1968043172
:1059C000FFF71DFB70BD0B4B196804310B48FFF747
:1059D0000BFBF7E70A4B1868064B19680431FFF711
:1059E0000EFB084B1B68A342ECD9064B1C60E9E791
:1059F000F0050020FC00002004010020C805002064
:105A000000010020A805002070B586B00B9D0C9CFD
:105A100075B1B4B15C260496049E5C2E1AD04FF08A
:105A2000500383F31188BFF36F8FBFF34F8FFEE7EF
:105A30004FF0500383F31188BFF36F8FBFF34F8F85
:105A4000FEE74FF0500383F31188BFF36F8FBFF36E
:105A50004F8FFEE72563022584F8595000250395F2
:105A6000029405AD01950A9D0095FFF763FE20465F
:105A7000FFF7DCFE059806B070BD2DE9F04385B058
:105A80000746884614461E46900000F099FE00B373
:105A900081465C2000F094FE0546B0B1C0F830901D
:105AA000E5B1002385F85930039302950D9B0193CE
:105AB0000C9B00933346224641463846FFF73AFE98
:105AC0002846FFF7B3FE012005E0484600F0F0FE4F
:105AD000E6E74FF0FF3005B0BDE8F0834FF0FF3050
